:100000006F40A05713000000130000001300000011
:100010001300000013000000130000001300000094
:100020001300000013000000130000001300000084
:08003000130000007300100032
:1000380000000000000000005A3B0000CE3B00001A
:1000480000000000C04400000000000000000000A4
:10005800C2440000C444000000000000000000008A
:100068005050000000000000540300000000000091
:10007800CA440000CC440000CE440000D044000034
:10008800D2440000D44400007E340000FA3400005A
:1000980076350000F23500006E360000283E00007C
:1000A800E2440000E4440000E6440000E8440000A4
:1000B800EA440000EC440000EE440000F044000074
:1000C800F2440000F4440000F6440000EA36000060
:1000D800FA440000FC440000FE4400000045000013
:1000E80002450000044500000645000008450000E0
:1000F8000A4500000C4500000E45000010450000B0
:1001080012450000C03A00001645000018450000DE
:10011800B63700001C4500001E45000020450000C1
:10012800224500002445000026450000284500001F
:100138002A4500002C4500002E45000030450000EF
:1001480032450000344500003645000038450000BF
:100158003A4500003C450000563D0000404500007F
:10016800424500004445000046450000484500005F
:100178004A4500004C4500004E450000504500002F
:1001880052450000544500005645000058450000FF
:100198005A4500005C4500005E45000060450000CF
:1001A800624500006445000066450000684500009F
:1001B8006A4500006C4500006E450000704500006F
:1001C800724500007445000076450000784500003F
:1001D8000000000000000000000000000000000017
:1001E8000000000000000000000000000000000007
:0801F8000000000000000000FF
:1002000097020120938202E0938202E0739002340D
:100210000321050022457310053079A8197102E009
:1002200006E20AE40EE612E816EA1AEC1EEE22F0E6
:1002300026F22AF42EF632F836FA3AFC3EFEC2E0F6
:10024000C6E2CAE4CEE6D2E8D6EADAECDEEEE2F0C6
:10025000E6F2EAF4EEF6F2F8F6FAFAFCFEFE1971AE
:100260002320250006C006C216CAF322003093F2EE
:100270008200638402009302000816C412C81ACCDC
:100280001ECE22D026D22AD42ED632D836DA3ADC66
:100290003EDEC2C0C6C2CAC4CEC6D2C8D6CADACC36
:1002A000DECEE2D0E6D2EAD4EED6F2D8F6DAFADC46
:1002B000FEDE03A1050009A002457310153492402B
:1002C0003785000013050580732005302245732013
:1002D00005304242D2426243F243025492542255C4
:1002E000B2554256D2566257F257064896482649AA
:1002F000B649464AD64A664BF64B065C965C265D86
:10030000B65D465ED65E665FF65F0961026092602A
:100310002261B2614262D2626263F26302749274D9
:100320002275B2754276D2766277F2770668966861
:100330002669B669466AD66A666BF66B067C967C59
:10034000267DB67D467ED67E667FF67F0961730088
:1003500020300000197102E006E20AE40EE612E81D
:1003600016EA1AEC1EEE22F026F22AF42EF632F8E5
:1003700036FA3AFC3EFEC2E0C6E2CAE4CEE6D2E875
:10038000D6EADAECDEEEE2F0E6F2EAF4EEF6F2F8C5
:10039000F6FAFAFCFEFE197116CA9302000816C49A
:1003A0009302000273A0428006C212C81ACC1ECE6D
:1003B00022D026D22AD42ED632D836DA3ADC3EDE05
:1003C000C2C0C6C2CAC4CEC6D2C8D6CADACCDECE75
:1003D000E2D0E6D2EAD4EED6F2D8F6DAFADCFEDEE5
:1003E00073110134EF002063EF10900AEF00606595
:1003F0007311013413848189032904006304090201
:1004000023200400732510342AC01384018904407A
:1004100023A0240013844189044003A10400024561
:10042000731015349240B78200009382028073A04B
:100430000230A24273A002304242D2426243F243EF
:10044000025492542255B2554256D2566257F25730
:10045000064896482649B649464AD64A664BF64B60
:10046000065C965C265DB65D465ED65E665FF65FB0
:100470000961026092602261B2614262D26262638B
:10048000F263027492742275B2754276D276627704
:10049000F277066896682669B669466AD66A666B18
:1004A000F66B067C967C267DB67D467ED67E667F84
:1004B000F67F0961730020300000397101436EC678
:1004C00019A0397141536AC866CA62CC5ECE19A0C0
:1004D000397101535AD056D252D44ED64AD826DA60
:1004E00022DC06DE33016140828241114AC026C20D
:1004F00022C406C68282B24D4101024D924C224C6A
:10050000B24B4101024B924A224AB249410102498F
:1005100092442244B240410182803D432A87637362
:10052000C3029377F700BDEFADE5937606FF3D8AF2
:10053000BA960CC34CC30CC74CC74107E36BD7FE3C
:1005400011E28280B306C3408A06970200009696A5
:100550006780A6002307B700A306B7002306B700ED
:10056000A305B7002305B700A304B7002304B70011
:10057000A303B7002303B700A302B7002302B70009
:10058000A301B7002301B700A300B7002300B70001
:10059000828093F5F50F93968500D58D939605018E
:1005A000D58D61B7939627009702000096968682B4
:1005B000E78086FA9680C1171D8F3E96E374C3F8D4
:1005C000A5B703A581808280EFF23FF293878180F7
:1005D0009843050798C3EF10402F3C45FD173CC5D5
:1005E00089E77C413CC5EF100033EF10C05D05B7D3
:1005F00001458280014582800145828001458280DB
:10060000EFF2BFEE2964A964130444B4938404B5E3
:1006100063639400EDBD1C4011048297D5BFEFF2D7
:10062000DFEC2964A964130404B5938484B563637F
:100630009400F1BD1C4011048297D5BFEFF2FFEA90
:10064000F93FEF30F03EE1B5EFF23FEAB7050000C9
:1006500037850000D1471547930600200146938552
:10066000C5631305C5EDEF10A026EF10E03D45B5BD
:10067000EFF2BFE7EF10A062EF20B01BEF00B02B4E
:10068000EF10E05BEF005078C137EF10E05B012C1A
:10069000EF00707A0145A5BDEFF23FE5D13F01457E
:1006A000BDB5EFF2FFE2AA89EF10202219C1EF10C9
:1006B000800A2545EF00F06044411304450063962D
:1006C0008400EF108020014911A8138944FF2146BE
:1006D000CE854A851D2D01E9EF10201F19C1EF10AD
:1006E000E0084A8505B58440D9BF09E57D5582807B
:1006F0007D5531BDEFF27FDF2A842E853289AE84AD
:100700004D377DF522852686A545EF00305E0145F3
:10071000231C2401230E0400231D0400D9BFEFF283
:10072000DFDC1E2D41112A84C18B9DE71C558DC332
:100730002EC68297AA84B24501CD2A86378500004D
:10074000A285130545EEEF00901826854101C1B33F
:100750001E2C93E707011EAC1E2CA18B89C73E2CD3
:10076000E554A18BFDF35C5489CF22858297AA843E
:1007700005E13E2C93E787003EAC5C2C85075CAC22
:10078000E9B785679387F7F0FD8D2EAC8144D5B727
:10079000E957E31CF5FAF1BF5C2D85CBEFF2FFD4EE
:1007A000FD1793F7F70F5CAD2A84014789EF1C59B9
:1007B00089E70147231D040039A082972A8775D94C
:1007C000E957E309F5FE3A8599B37D573A8582806A
:1007D000EFF2BFD1582D09E77D552129014521A010
:1007E0005C5999C3829725B36955C5BFEFF2FFCF16
:1007F000582D09E77D55F52E014521A01C5D99C3B3
:10080000829731B36955C5BF0CD101458280EFF2A3
:100810003FCC93894186854A83A741866386370505
:10082000EF10E04783A741862A8A638D370303A42C
:1008300041865C4018401309C4FE5CC398C340C0A5
:1008400000C0EF0050717C5099C34A8582974A8559
:10085000EF00105B631B55014A85EF00104FEF005E
:10086000F0705285EF10604471B9EF00307052851E
:10087000EF10A0434848EF00303A4A85EF0030556A
:1008800061BFEFF29FC613840194130904011C4059
:1008900091C382971104E31C24FF953FEDB7EFF25B
:1008A000DFC437160000B7850000930800023D48FA
:1008B00093070020138701958146130626889385A8
:1008C000C5F11385018CEF00307D1385018CEF108D
:1008D000A01735B9EFF27FC141112A842E8532C6A7
:1008E0002EC4EF1060083246A24519C68547630D35
:1008F000F6000145410121B95840938745011CC3C9
:1009000098CD5CC0C0C9F5B71C406388870083C61A
:10091000550303C7170263FAE600D4431387450162
:1009200098C294CDD8C3DCC9E9B79C43F9BFEFF2B4
:10093000DFBB4111B2842E8689452A8436C6EF007A
:10094000F03AB246930744011CCC5CC846AC14B4E0
:10095000014541016DBEEFF2BFB783A7018541118B
:100960002EC62A8491C38297EF1060335E2CAA8929
:1009700089CFFD175EACEF10403383A7C1840145DA
:1009800091CB22858297014531A0B24791E7EF10C4
:10099000C03179554101BDB6EF00307323280502FF
:1009A0001034AA85AA84130544012D37B247635C2D
:1009B000F0001389C404700081454A85EF10201DA2
:1009C0004A85EF10C0114E85EF10202EEF007049C0
:1009D000885845D5C1B7EFF25FB183A781842A84D7
:1009E00091C38297EF10A02BAA8448489307440133
:1009F000630EF5003115EF10600005442685EF10F9
:100A0000C02A19C0EF00F045014511B65E2C8507DC
:100A10005EAC0144E5B7EFF25FAD4111EF10202865
:100A2000138741811C23850793F7F70F1CA383A726
:100A3000C18081C72AC682973245EF100027410145
:100A4000F9B4EFF29FAA4111EF106025138741819D
:100A50001C23FD1793F7F70F1CA383A7018181C700
:100A60002AC682973245EF10402441014DB403C598
:100A700041818280937808044111639E0800A16837
:100A80009388880C93730801638B03001378E8FF45
:100A9000930E000219A8A16893884802E5B7137362
:100AA0001800930E0003E30503FE13732800630E82
:100AB0000306635806023306C0409302D0020A8E32
:100AC000814F294F6395E6073373D6023356D6021A
:100AD000469303430300850F050EA30F6EFE7DF2C0
:100AE0000DA0137348009302B002631703009372C2
:100AF0008800B3325000960279F2930600035480C6
:100B0000854FFE8663D3FF00BE8613781801158FCC
:100B100063130804638502006353E0007D172A868F
:100B2000B308E5001303000221A88142F1B7137353
:100B3000F600118271BF6374B600230066000506DB
:100B40003388C840E34900FF3A86635307000146F3
:100B50007D173295118F638802006374B5002300FE
:100B600055007D17050563870302AA961308000345
:100B70001DA86374B6002300D60105063388C8405B
:100B8000E34900FF3A866353070001467D1732951B
:100B9000118FE1BF2A86B308E500CDB76374B500B5
:100BA0002300050105053386A640E3C9CFFEFD56A7
:100BB000FD1F6383DF0099E7AA873306E50013086A
:100BC000000231A86376B5003306F101102210A1AE
:100BD0000505F9BF63F4B700238007018507B30655
:100BE000F640E349D0FE6353070001473A954101BF
:100BF0008280EFF29F8F2A849D3D09C523AC8180BE
:100C00006FF0FF90EF00704C75D900D9D5BF0D473C
:100C1000AA876376C7009377350091C7AA873E9667
:100C20006397C706828093F7F50F13978700D98FD4
:100C3000139707015D8FB308C500AA87BD463388A7
:100C4000F84063EB060393574600C156B386D702BC
:100C50009207AA970D4836963383C700BE86B3081D
:100C6000D3406362180313572600F156B306D70228
:100C70000A07BA97369665B798C3D8C398C7C1070D
:100C800023AEE7FE6DBF910623AEE6FEC9BF850722
:100C9000A38FB7FE71B763F2A504B386C500637E68
:100CA000D5029345F6FF8147FD176393F5008280D7
:100CB0003387F600030807003387C7002A9723000D
:100CC0000701DDB73387F500830607003307F5001A
:100CD000850714A3E318F6FE82808147E5BF0DC6A1
:100CE000AA8785050387F5FF85079306F6FFA38F7F
:100CF000E7FE09EB3E9685076393C7008280A38FCA
:100D000007FED5BF3686F1FE828001476314E600F8
:100D1000814739A8B307E50083860700B387E5005C
:100D20009C23B387F640E207E18799E30507F9FEC4
:100D30003E858280AA870387070001E73385A740A5
:100D400082808507CDBFEFF2CFF72E89B30B250147
:100D500041112A8CB68563F5AB001349F5FFFD5BA5
:100D6000C169378A00006284930AB002130B000243
:100D7000FD19130A0A0C31A8130750026389E70210
:100D8000637374011CA013051400B284138614004D
:100D90002A8483070600EDF363060900637B742F42
:100DA000230004003305844141016FF00FF5014831
:100DB0001307D002930630021305000331A0639E8F
:100DC000570113684800268683071600930416000F
:100DD000E397E7FE13680801FDB7639567011368A1
:100DE0008800D5B76395D70013680802E9BF6395FB
:100DF000A70013681800C1BF138707FDA54663E667
:100E0000E6040147A546294539A03307A702850412
:100E10003E97130707FD83870400138607FDE3F65B
:100E2000C6FE038604009306E002FD57631FD60446
:100E300083871400254693861400138507FD636598
:100E4000A60A8147254529433DA09306A0027D5768
:100E5000E399D7FC9841930426009105E35307FCDE
:100E60003307E040136808016DBFB387670285064A
:100E7000B297938707FD03860600930806FDE37685
:100E800015FF63D307008147B684838604001306E9
:100E90008006014593F8B6FF6395C80013F5F60F79
:100EA000850403860400930690066303D60663C593
:100EB000C606930680056303D61C63C3C604930766
:100EC00050026307F61A63757401930750021CA061
:100ED00083870400130514006386071A6373750182
:100EE0001CB0130524005DB51306A0026397C7006C
:100EF0009C4193862400910569B7B684814771B7F8
:100F0000930630066302D60893064006E31DD6FA20
:100F100013682800A94699A0930630076303D60CEE
:100F200063C5C6029306F0066300D6169306000753
:100F3000E31BD6F8FD566315D70013681800214748
:100F4000938C4500C14690411DA893065007E303CA
:100F5000D6FC93088007C146E31716F71306C006B0
:100F6000938C4500E301C5FE13068006E31DC5FC16
:100F7000904193752800639B051033763601DE851A
:100F80002285CD3CE68519B5137808016315080262
:100F9000BA879306000229A06373740114A00504A4
:100FA000FD17E34BF0FE9307F7FF6343E0000547AF
:100FB0003387E740050793874500637474019441C4
:100FC00014A013051400229713060002B306A740CD
:100FD0006344D000BE855DBB6373750110A1050538
:100FE000F5B783AC0500138D450063930C00D28CDC
:100FF00066853EC63AC442C2353BB247AA8612480D
:1010000022476355F00063D3A700BE86137808011A
:10101000631E0800BA871306000231A063737401CF
:1010200010A00504BA877D17E3CAF6FE814763C1A5
:10103000D702B68763D3060081473305F4002A97A9
:1010400013060002B307A74063CFF600EA853DBB55
:101050003306F40063777601B385FC0083850500D1
:101060000CA28507E9B76373750110A10505D9BF07
:101070006373740110A01305140009BB13680804FE
:10108000C146E9BDFD1419B3A146C9BD420641865A
:10109000FDB5A38F0BFE39B303A5C1818280EFF2AA
:1010A000CFC403A9C181EFF0CFDF11CD1384C1817B
:1010B000AA84084019C1EFF02FEE9305300426856D
:1010C000EFF0EFE504C04A856FF06FC4828039719C
:1010D00026CA2ED232D436D62A8654109305F0076B
:1010E000138501B53EDA36C606CE22CC3AD842DCAC
:1010F00046DE9139AA8603A5C18109E9138501B5A8
:10110000F137F2406244D244216182802686262D46
:101110001384C18193E704043EAD9307F00763F4A1
:10112000D7009306F007138601B58145EFF00FEC69
:101130001C40A6AFF9B7EFF24FBB3785000013058F
:101140008503713737850000130545044937378714
:10115000000037850000130787068D4605468D453C
:1011600013054507AD373785000013054509853759
:101170006FF0EFB931C5A1661377F50F938646F28C
:1011800009C7BA96882205058280C167938707F050
:10119000E98F81CB21851377F50F36970823250535
:1011A0008280B707FF00E98F81CB41859377F50FE8
:1011B000B6978823450582806181369508216505AB
:1011C000828003A741825C41BA976305F502B6238A
:1011D00095E283A60182638FF60093868182904216
:1011E0006313F60088C2D44354C1DC43B306E54020
:1011F000BA9794C71045B307C700630FF500B6232D
:1012000081EE938681828C426393A5009CC25441F7
:10121000D4C35C413E9710C78280EFF20FAD83A527
:101220000183378500001305C50D553583A5C1839E
:10123000378500001305050F593D83A5C182378509
:1012400000001305451061356FF06FACEFF2EFA9A8
:1012500013F7C5FFE1462E8663F1E60693073500D6
:10126000F19B930687FE63EAF6041D8F130687FE43
:1012700023A8C1828966511713844182938606EAA6
:10128000D8C394C323A407001CC0BA9723A0F1823B
:10129000C966938606EAB785000094C3D8C398C789
:1012A000814605469385C519138501BDEFF02FE8EA
:1012B000184023A4E1826FF08FA5AA85378500002E
:1012C0001305451A2935C5BFEFF22FA239C503A76B
:1012D0000183130435007198138901838144636687
:1012E000870EB1476373F4003144FD55138501BD8A
:1012F000EFF06FE683A7818283A5418283280900EE
:1013000026853386B740B386884013888182636818
:10131000D600138501BDEFF00FEC81447DA0B384AE
:10132000C500BA2003AE440061E73307CE40930FF7
:1013300047FF63EF8F0A138FC183938EC18213031C
:10134000840183260F0083A30E001389C183938237
:10135000C18263EF6F061307C4003297896E33832F
:10136000E500938E0EEA2322C3012324C300232029
:10137000D3010546D8C0B2A003264300B1086304D8
:1013800016012E9618C61387C60022972320E9005F
:1013900063F4E30023A0E2000967130707EA9AA0B9
:1013A000639A970083A601820147B22305EE19C311
:1013B0002320F800138501BDEFF0EFE183A78183BF
:1013C000B10481C7A2852685829726856FF02F9468
:1013D00005463697B2A02320EF00E3FFE3FA23A0EF
:1013E000EE005DBFE385D7FCDC430547AE9775BFD4
:1013F000728631BFEFF26F8F3306B502411132852D
:1014000032C6D9352A8409C532468145EFF03F807E
:10141000228541016FF0AF8F45C5EFF26F8B83A737
:1014200041832A8491C3829783A741821389418291
:101430006366F40883A701826372F408FD5513857F
:1014400001BDEFF04FD1835764FF930944FF81CB77
:10145000035744FF8967938707EA6301F7023785DB
:10146000000013050515A531835644FF035664FF9C
:1014700037850000CE851305C51691398967938796
:1014800007EA231AF4FE938781829843231B04FE04
:1014900063F4E90023A037011387C1831C4383262B
:1014A00084FF4E85958F83260900B386D940B69771
:1014B0001CC3013B138501BDEFF0EFD16FF08F84AA
:1014C0008280B707002093860700014793870700B3
:1014D00021468C426396A500131547003E958280F5
:1014E0000507C106E317C7FE01458280EFE25FFEF4
:1014F0002A842E85AE89328AE9372A89A92C832449
:101500004900930749006390F4048D2493E909F896
:10151000230434012146D2852285EFF04FFC83A7B6
:10152000018499C322858297EF00607703274900E1
:101530009307C4005CC358C42322F90004C8EF0019
:10154000C0766FE03FFC84407DBFEFE21FFA83A7C7
:1015500041842A8491C3829723040400EF002074FD
:10156000544418489307C400D8C214C31CC85CC4B0
:10157000EF00A0736FE0BFF9EFE29FF52E89AA8913
:101580008937AA84484589332A841DCDD0448145B2
:10159000EFF0EFE7214623043401A3040400CA85D9
:1015A0002285EFF0CFF383A7018499C32285829728
:1015B000EF00E06ED8409307C40091045CC358C4A8
:1015C0009CC004C8EF00606E22856FE0BFF3EFE2BD
:1015D000DFF183A741842A8491C382972304040006
:1015E000EF00E06B544418489307C400D8C214C3FA
:1015F0001CC85CC4EF00606B2285393D6FE03FF191
:10160000030585007D81828023900186938701BF39
:1016100013870708DCC39CC3A107E39DE7FE3D4792
:10162000238AE18423AC018423A601869387418623
:10163000DCC39CC38280EFE25FEB03A5C186EFF0C1
:101640007FB37D1593173500138501BF3E95084183
:101650001307C5FE210523ACE184EFE07FBA6FE0FC
:101660001FEBEFE29FE8EF008063839701862A89F2
:10167000B1E703A5C186EFF0FFAF7D151317350065
:10168000938701BFBA97844393878185804393856D
:10169000C4FE6305B4028CC383A7C185238AA184D9
:1016A00099C32285829783C741811305C40193851D
:1016B000840093F7F70F81EBEFE05FB64A85EF0008
:1016C000C05E6FE0DFE4EF00A05ECDBFEFE2FFE1C0
:1016D0002A84EF00C05C8347440393064401C19B06
:1016E00093E71700230AF402834754031397370044
:1016F000938701BFBA97D84314C318CCD4C35CC82E
:101700009387C1869443185C558F98C3EF00E059C6
:101710006FE0FFDFEFE27FDD2A845123184C54484D
:1017200093074401D8C214C35CC81CCC834754033C
:1017300013973700938701BFBA979843631AF7004E
:101740001387C1861C5C144393C7F7FFF58F1CC336
:10175000A92B6FE0DFDBEFE25FD99123938701864E
:101760009A2305079AA391236FE07FDAEFE2FFD770
:101770003D23138701861E23FD17C207C1871EA3C1
:10178000634BF000231007000D2383A7818591C3CD
:10179000C93D6FE0DFD7112BEDBFEFE21FD503A4EA
:1017A0008185F529AA842285B5379147230AF40259
:1017B0001305C40431262285A1358547631BF50036
:1017C0003C5C81EB228551332685C521593D6FE074
:1017D0001FD483A641861307440123A2E186D8C201
:1017E0009387418654C81CCCC5B7EFE21FD02A842A
:1017F0005105411108CC48C80CD050D014D43A86B9
:1018000058D49305300236853EC642C4EFF02FC04F
:10181000585410544C5008507117B71600003A969F
:101820009386A6791D21B24722483726000048CC6E
:10183000230BF402A30AF402232C0402814723227F
:1018400004052324040523280402230A0402232C6C
:101850000406232E04060147A28613068687A28566
:101860001305C4040D2483A7018799C32285829799
:10187000014541016FE0BFC9EFE23FC75049144D38
:10188000795718D954C21307450190C218CD58C9C9
:10189000353DC13B6FE0BFC7EFE23FC54111B284A8
:1018A0002E8685452A84368946C03AC63EC442C241
:1018B000EFF0DFC3024892472247B2464A86A68528
:1018C0002285253741016FE09FC403A58185828071
:1018D000EFE21FC041112E89AA85054532C6B684A4
:1018E000BA893E8AEFF05FC92A8411C92685EFF0D4
:1018F000BF9D324609E92285EFF07FCD0144228564
:1019000041016FE03FC0AA865288CE872687CA85EC
:101910002285E13DEDB7EFE25FBD512683A78185CA
:101920000546AA8603C747033D8B631CC702D04BFD
:10193000984F6308E60258C210C303C65703938644
:1019400047010E06138701BF94CF3297504314C24C
:1019500090CF54C3D8CB912EEFF0BFD001456FE0AC
:101960001FBB36859926DDBF834745030547BD8BE1
:10197000639FE702EFE27FB72A841526834744037B
:10198000AA842285C19B93E72700230AF402EFF083
:101990007FD81305C404E1222685012E83A7818701
:1019A000014581C72285829701456FE05FB67D556D
:1019B0008280EFE29FB341112AC6D52403A481851A
:1019C0002A89228555379304C404700081452685F1
:1019D0007D2A268529224A85C92CEFF09FC81858F0
:1019E000F9576314F70023280402014541016FE011
:1019F0001FB2EFE29FAF753F6FE07FB183474503B2
:101A00000947BD8B6390E704EFE23FAE2A84412C87
:101A10005448184C93074401AA84D8C214C31CCC60
:101A20005CC81305C404252A268541242285EFF0CD
:101A3000FFC983A74187014581C722858297014558
:101A40006FE0FFAC7D558280EFE23FAA83466503DD
:101A500005473317D70018DD0947A30AD502230A23
:101A6000E502693F83A7818599C3EFF09FBF0145D8
:101A70006FE0FFA95449184D93074501D8C214C31C
:101A80001CCD5CC98280EFE25FA64111B2842E8634
:101A9000A9452A8436C63AC43EC2EFF03FA5924714
:101AA000B2462247F99B1CB49307440144CC14D09E
:101AB0002324040258D01CCC5CC841016FE03FA530
:101AC000EFE2BFA22A84E12AAA842285653726850F
:101AD000E92A2285EFF07FA701456FE05FA3EFE2DF
:101AE000DFA02A846D2AAA84228569371C342685C2
:101AF000F99B1CB45D2A83A7C18499C32285829770
:101B0000EFE03FAC5C503E9508D4512A13878188A2
:101B10000328470037060080938781881346E6FF35
:101B200098436315F8029386C1879042050690C2D8
:101B30009306440154C358C894C31CCC1C3493E787
:101B400017001CB49D2201456FE07F9C544B0C5440
:101B50006385B6008D8EE378D6FCBA87D1B71C3585
:101B6000858B85C7EFE27F9883A781842A8491C300
:101B700082973522AA842285F53D26853D221C3494
:101B80000145F99B1CB46FE09F987D558280854785
:101B90006381F50263C5B70085C10145828089472D
:101BA000638FF5008D47E39AF5FE1C3593E7270018
:101BB00009A85C511CC2D5B71C425CD1F9BF1C35C9
:101BC000F59B1CB5D9BFEFE2DF8FEFE09F9F2A8C1A
:101BD000F920B70900802A8A9384818893C9E9FF94
:101BE0008D4B8040631694005285C1206FE0FF90BA
:101BF00048481309C4FE3305AC40E3E7A9FE83A7B8
:101C0000018899C34A8582974A85EFF0BFE61C4454
:101C100048448297EFE0FF9A83A741882A8C99C3B2
:101C20004A858297834754FF13F7E70FA30AE4FE20
:101C30008D8BE39877FB4A85EFF07FEA5DB793875A
:101C40008188DCC39CC3828082801106719A2A88B5
:101C500037C7ADDE130506F0AA871307F7EE631E3C
:101C6000F600A167938707882322D6F02324B6F2D3
:101C7000232006F12324F6F0828098C39107C5B78C
:101C800037F700E01C43B7060080D58F1CC3828065
:101C900037F700E01C43860785831CC382802165DB
:101CA000130505807315053082807310053082801E
:101CB000EFE2BF831387818918439387818919E3F2
:101CC00023A8A18823AAB188054798C3553F6FE090
:101CD0001F842A87814718436314A7003E858280AA
:101CE0008507D5BFB707EFBE37E700E09387070842
:101CF0003CC701458280EFE24FFF378500001305A6
:101D0000051EEFF0CFBC01456FE07F80EFE2EFFDF5
:101D10002A84FD54379900007D14631494006FE009
:101D20000FFF13058994EFF08FBAFDB7EFE24FFA7A
:101D30000041AA8437990000B79900006314940009
:101D40006FE04FFC9305C4FE1305C994EFF02FB864
:101D50001C406386970013850995EFF04FB700404C
:101D6000F1BFEFE28FF82E89EFE0DFFC2A84EFF07D
:101D70009F9E83240900639C2401EFF03F9FA147AD
:101D800063C3870011E0214422856FE04FF813857B
:101D900044FFEFE03FFA6353A4002A848440E1BF8C
:101DA000EFE22FF20545EFF0CFF1B78900001309FC
:101DB00045002A84CA85138549496537AA85AA84BE
:101DC00037850000138649491305C549EFF02FB048
:101DD0002685EFF0BFF3378500001305054EEFF0C1
:101DE0000FAF4040B7890000054A894A378B000091
:101DF000B78B0000378C0000B78C0000378D0000D7
:101E00006315890001456FE04FEF03479402138586
:101E10000952930644FF2146A685EFF04FAB834756
:101E200084021385CC52BD8B638E470113058C53FE
:101E3000638A570113854B5491C711476396E70096
:101E400013050B55EFF0AFA84C4C93073002AE864C
:101E500098226306F7021050930740060848B2958F
:101E6000B386D540B386F602585C5C50898D130565
:101E7000CD55B3D6C602EFF08FA5004051B7850609
:101E8000C1BFEFE2EFE441110945EFF08FE39309A1
:101E90004500378900002A84CE8513054943EFF0B9
:101EA0005FECAA85AA843785000013064943130511
:101EB0000544EFF0CFA12685EFF05FE53785000000
:101EC0001305C545EFF0AFA04040378A0000B78A40
:101ED0000000378B000063968900014541016FE0E7
:101EE0006FE21A281C44930644FF1309840036C687
:101EF0003AC44A856306F902EFF0BFDD2247B246D5
:101F0000AA872146A68513854A47EFF04F9C4A854C
:101F1000EFF0DFE113050B26EFF06F9B004065BF8C
:101F2000EFF03FDB2247B246AA872146A68513057C
:101F30004A48EFF0CF99DDB7EFE28FD94111114553
:101F4000EFF02FD893094500378900002A84CE8509
:101F500013058927EFF0FFE0AA85AA8437850000E2
:101F60001306892713050528EFF06F962685EFF0F5
:101F7000FFD9378500001305452AEFF04F95404003
:101F8000378A0000B78A0000378B0000639689000B
:101F9000014541016FE00FD71C44130984009306EB
:101FA00044FF18486309F9024A8536C63AC4EFF07F
:101FB0005FD22247B246AA872146A68513854A2CBE
:101FC000EFF0EF904A85EFF07FD613050B26EFF088
:101FD0000F90004065BF2146A6851305CA2DEFF07E
:101FE0000F8FC5BFEFE2CFCE41110D45EFF06FCDA2
:101FF000B7890000130945002A84CA851385093D65
:10200000EFF03FD6AA85AA84378500001386093DE4
:102010001305853DEFF0AF8B2685EFF03FCF378579
:1020200000001305C53FEFF08F8A4040B7890000DC
:1020300063168900014541016FE0CFCC930644FF50
:102040001305840036C6EFF0DFC8034834015C484E
:10205000B246AA8821472146A6851385C941EFF0DB
:102060000F870040F1B7EFE2AFC641111545EFF021
:102070004FC593094500378900002A84CE85130592
:10208000092FEFF01FCEAA85AA843785000013061A
:10209000092F1305852FEFF08F832685EFF01FC7DB
:1020A000378500001305C531EFF06F824040378A55
:1020B0000000B78A0000378B000063968900014555
:1020C00041016FE02FC47A285E281044930644FF34
:1020D0001309840036C63AC43EC24A856307C90262
:1020E000EFF03FBF92472247B2462A882146A68595
:1020F00013858A33EFE0BFFD4A85EFF03FC3130538
:102100000B26EFE0DFFC00404DBFEFF09FBC924795
:102110002247B2462A882146A68513050A35EFE0F4
:102120001FFBD5B7EFE2CFBA41111945EFF06FB9F8
:1021300093094500378900002A84CE851305893626
:10214000EFF03FC2AA85AA843785000013068936BE
:1021500013054537EFE0BFF72685EFF03FBB378526
:10216000000013050539EFE09FF64040378A000074
:10217000B78A0000378B0000639689000145410152
:102180006FE04FB81A2C1C44930644FF13098400D7
:1021900036C63AC44A856306F902EFF09FB3224778
:1021A000B246AA872146A68513858A3AEFE03FF218
:1021B0004A85EFF0BFB713050B26EFE05FF1004053
:1021C00065BFEFF01FB12247B246AA872146A68518
:1021D0001305CA3BEFE0BFEFDDB7EFE26FAF5D7114
:1021E0002545EFF00FAEA165130600052A841309FB
:1021F00045009385C5E80A85EF509037B789000000
:10220000CA8513850921EFF0DFB5AA85AA84378531
:1022100000001386092113058521EFE05FEB268579
:10222000EFF0DFAE3785000013050524EFE03FEA4D
:102230004040D149378A0000631689000145616139
:102240006FE04FAC1C44930644FF63E0F90298082A
:102250008A07BA9703A707FB1C282146A685130502
:102260004A26EFE0DFE60040C1BF4647F5B7EFE2A0
:102270002FA62945EFF0EFA4B78900001309450008
:102280002A84CA8513854958EFF0BFADAA85AA8470
:1022900037850000138649581305C558EFE03FE322
:1022A0002685EFF0BFA6378500001305455BEFE0FC
:1022B0001FE24040B7890000378A0000B78A00005B
:1022C000631E8900EFE0EFAFAA8537850000130594
:1022D000C560EFE0DFDF01456FE0CFA25C4C184C3A
:1022E0001385895D930644FF2146A685EFE03FDE16
:1022F0008347D4FF13850A5F858B99E31305CA5F73
:10230000EFE0FFDC00406DBFEFE28F9C37850000FF
:102310001305851EEFE0BFDB03A4018AB789000027
:10232000378A000083A7418A6365F40001456FE0A6
:102330006F9D044009469385C91F2685EF50703272
:1023400019C55040A68513050A20EFE05FD8310477
:10235000D1BFEFE2EF97379500001305C5AAEFE074
:102360001FD703A4018AB7990000379A000083A7FA
:10237000418A636BF4003785000013050526EFE002
:102380001FD501456FE00F9804401946938589AC2D
:102390002685EF50102D01E9504093856400130508
:1023A0000AADEFE0DFD23104D9B705458280EFE214
:1023B0002F9279712A84AA959306000225478307F4
:1023C0000400B38485406385D70A6383E70A014527
:1023D000638B0410014913070002A546B3072401CB
:1023E00083870700638AE7086388D708631499081E
:1023F00083A9018A83AA418A379B000063F05909A7
:1024000003AA0900194693058BAC5285EF5070253D
:1024100059E54A86A28513056A00EF50902441E1F0
:102420004A9A83076A00A5EF83A989006388090493
:102430001306800281452800EFE02F8E13098100EA
:10244000CA86A2870145014713080002A54829430F
:1024500013062002130EC00583850700638405015F
:1024600063961505631F9702A9476303F50469A8DE
:102470000504B1B705099DB7E31C09F6A2870387D8
:1024800007001377F7FD79E737950000130545A995
:1024900023800700A285EFE09FC37D55A9A0B10965
:1024A000B1BF23800700050785077DB7631065046A
:1024B00037950000130505A7EFE07FC10018B7941A
:1024C000000083250900138504A91109EFE03FC02E
:1024D000E31989FE3785000013050526EFE03FBFAD
:1024E00029452C00829945616FE0CF81637E97007A
:1024F00005056392C504850705079CC2838507000F
:102500006381C5026364970069FD8DBF838E1700E8
:102510006396C5016394CE00850705078507050707
:10252000F1BFE37397FE2380070005078507910637
:10253000E36497F2D1BF9CC28385070063890501DC
:1025400063871501E30297FC85070507F5B7E3608C
:1025500097FE5DBF850725B7EFD2BFF6830705005D
:1025600099E781450145EFF0DFDE6FD01FF903AA3F
:10257000018AAA8981440149379B0000B79B00006A
:1025800083A7418A6369FA00EDD04A86A6854E8505
:10259000EFE0EFF4D9BF03240A00194693058BAC92
:1025A0002285EF50100C21E14E85EF50700A19047E
:1025B0002A86A2854E85EF50D00A15E563170900DB
:1025C0002285EF50F0082A89A284A68722870386F5
:1025D000070001EE858F63D327013E89A28513850D
:1025E0008BADEFE0DFAE310A61BF83060700FDD29D
:1025F000E312D6FE85070507D9BFEFD21FEFEFF034
:102600002FFA01456FD0BFF0EFD23FEEEFE0FFC0F1
:1026100001456FD0DFEFEFD25FED03A5C189EFE099
:102620008FBB01456FD0BFEEEFD23FECB7A70000E4
:102630009387079F23A0F18AB7A70000938707B469
:1026400023A2F18AB7A70000938707B423A4F18AD5
:10265000B7A70000938707B493050021054523A67B
:10266000F18A1384C189EFE0FFD808C019E93795D2
:1026700000001305C5B8EFE09FA57D5422856FD0FB
:102680001FE9B725000037950000A9472D4793069D
:10269000004001469385857A130545BAEFF04FA3B4
:1026A000AA840840B7950000814601469385C5BAC3
:1026B000EFE0EFA70144F9D02685EFF0EFB87DBF3A
:1026C000EFD2BFE2EFF07FCE0DC5B7950000938546
:1026D00085B5138501C7EF50A076B79500009385A7
:1026E00085B6138501C7EF50C073138501C76FD03E
:1026F0001FE2B7950000938505B6E1BFEFD2FFDE7C
:102700002A8437950000130585BCEFE05F9CEFF04D
:102710003FFBAA85379500001306A41B130505BDD2
:10272000EFE0FF9A01456FD09FDEEFD21FDC411131
:102730002AC6EFD01FF7B24511E9379500001305FF
:10274000C5B6EFE0DF9841016FD07FDC83A7C18978
:10275000AA841384C18983A7C720E386A7FE9305B3
:102760003014EFD0DFFB65F11C4003A5C72009C979
:10277000EFE08F821C40814503A5C720EFE0CF88A2
:1027800000401306000581451305A41BEFD0FFD8B8
:10279000B725000023150420232694209385656126
:1027A0002685EFE06F8645B7EFD23FD183A7C18979
:1027B00041119384C18903C747021367170023821D
:1027C000E70283A7C72091E7EFE01F8D19C1EFF063
:1027D000DFF5EFF0FFEEEFE09F8F379B0000B79B38
:1027E0000000B7990000378A0000B79A0000379CB4
:1027F0000000B79C00009C4085461306F10003A52D
:10280000C720FD55EFD0DFFC8547631AF5000309AB
:10281000F100ED4780406319F90008D0E9BF884016
:10282000FD55EFE04F93C1BF1C506392A702930781
:10283000B0056315F90089471CD075BF2320040239
:10284000E30B09FAA5476314F9120149D1A8094716
:10285000E398E7FE23200402930710046312F904AF
:102860006E30D1D9FD15C205C1816EB09307A41B8E
:1028700013070005B385E502130600053E85938521
:10288000A502A295EF50C04EEF50805C1375F50F76
:102890002305A420A305A4202285EFF03FE6A1BFD5
:1028A000930720046311F90216347E301387F6FF74
:1028B00063D8E70085077EB09307A41B6E304DBF39
:1028C0009DDA7AB0D5BF930740046310F9028347BD
:1028D000B42095D3138549BBEFE06FFF9840834741
:1028E000B720FD17A305F72039B793073004E31984
:1028F000F9F48347B4200347A420E3FEE7EE3E94B7
:102900008305A41B13858ABBEFE06FFC98408347C7
:10291000B7208507C1BF138549BBEFE04FFB050911
:1029200080408347B420E348F9FE13050A26EFE010
:102930000FFAEFF09FA785471304A41B6315F5005A
:102940002285EFF07FC1EFF0BFD72286AA851385DD
:102950000CBDEFE0CFF780401305A41BEF50404FB4
:102960001375F50F2305A420A305A42069B59307CB
:10297000F0076305F900A1476315F9088347B42000
:10298000E38B07E60346A420FD1793F7F70F7D16A8
:102990001376F60F2305C420A305F42063F8C704BB
:1029A0009385B71B1385A71B1D8EA2952295EFE07B
:1029B0008FAE9C401385CBBB03C7A7203E97230D4A
:1029C000071A83C5B7209385A51BBE95EFE02FF0AE
:1029D0009C4003C4B7209C4083C7A720E3CD87E079
:1029E000138549BBEFE0AFEE0504F5B713054BBC0B
:1029F000EFE0EFED9C4003C7A720BA97238D071A9D
:102A0000DDBB35478347A4206305E9002947631EE2
:102A1000E90EB9CB035984029147130DA41B63FB44
:102A20002709930DA41613060005EA856E85EF505D
:102A3000E0311DC91309A4024A85130909051306CB
:102A40000005CA85EF50C032E3982DFF130600053C
:102A500081456E85EFD07FAC0346A420EA856E8564
:102A6000EF50003195471EB41E347EB0EFF0FF9357
:102A700085476312F5029C4083C74702858B89C74F
:102A800013050A26EFE0AFE488408345A52013052F
:102A9000A51BEFF0DF91EFF0BFC2EFE04FE3804006
:102AA0001306000581451305A41BEFD01FA72315AE
:102AB000042091B3630109021305F9FF9307000590
:102AC0003305F50213060005EA851305A5022295D4
:102AD000EF50C02751D9930D00053305B9031306F4
:102AE000000581451305A5022295EFD01FA30A34E6
:102AF0000346A420EA853305B5031305A5022295F4
:102B0000EF5000271E348507B9BF1307F004637424
:102B1000F700230504200346B4208347A4206370F4
:102B2000F6089305A61B1305B61BA2953386C7406E
:102B30002295EFE04F968C4083C7B5203387F50090
:102B4000230D271B03C74502058B01CB9387A71BCA
:102B5000BE951305CC94EFE08FD79C4003C4B720FB
:102B60009C4083C7A7206346F40298408347A72070
:102B70008346B7208507850693F7F70FA305D7206F
:102B80002305F7209306F004E3F7F6C62315072084
:102B90009DB1138549BBEFE08FD30504D1B7A29750
:102BA000238D271B83474402858BE1D3CA85138578
:102BB0008ABBEFE0CFD155BF7C4123280504232AEF
:102BC00005049C4381CBEFD25F92930585048297E5
:102BD0006FD0FF9301458280EFD29F8F36899DCAC7
:102BE000AA843284B309D600294A1C20639B47017A
:102BF000BE2C93F7070491C7FC40B54526859C473A
:102C00008297FC408305040026859C470504829733
:102C1000E31D34FD4A856FD0FF8EEFD21F8D93F7F1
:102C200005102A8491C71A2D61551377071035CFE7
:102C300013F7054011C71A2C61551377074035C7A4
:102C400013F705049304000401E7262C93F404040D
:102C5000384893F5F50F2EAC39EBA1C768442981AC
:102C6000420541813105EFE02FE670442A893105A4
:102C700029824206418281452320A900EFD03FF9F5
:102C8000232209003E2C232409002328240593E74E
:102C900007103EAC7C4013060010C145DC43228582
:102CA00082973E2C0145DD8C26AC6FD05F86F5DB2C
:102CB00093E505102EACF5B70948AA876381050393
:102CC000EFD2BF820D486382050305476399E5048F
:102CD0001A2D1377F7FD1AAD01456FD05F831A2DBA
:102CE000136707021AAD01458280328775D65042BC
:102CF00074454C2D2982A9824206C2064182C182B6
:102D00006304D6001D45F1F91443B4C75443F4C716
:102D1000E1D5F443BA853E859442829675BF7C41E5
:102D2000DC4382975DBFEFD2AFFA3684B1CA3E2D45
:102D3000AA89328993F70710B6849DE37D5AA94A80
:102D400083A749044E85DC47829763094501230028
:102D5000A900FD14050963035501FDF0058C0DA0C4
:102D60002449368A854AEFE09FF3FE20DA202A863E
:102D70009444631AF70081EAEFE03FF333044441DF
:102D800022856FD02FF898403E97034B070003A78A
:102D9000C9048507C2072983C1834207FEA0418376
:102DA00063E4E700239304006394560123A4040022
:102DB0003285EFE09FEF7D1A230069010509E314D6
:102DC0000AFA6DBF582D854763ECE7023E2D93F755
:102DD00007109DC7EFD26FF12A842849EFE0CFE3B7
:102DE0003E2C232804041306001093F7F7EF3EACA3
:102DF0007C40C5452285DC43829701456FD02FF189
:102E000001458280EFD26FEE37370000130787BB92
:102E100018D5373700001307A7C158D5373700003A
:102E2000130747DC18D937370000130767D258D982
:102E300037370000130787BD18DD37370000130749
:102E400087CB420658DD34C14182232A0500232066
:102E5000050223220502EFD05F896FD04FEB93F577
:102E6000F50F85476391F50AEFD28FE620494111AE
:102E7000AA847D598549FC402685DC4782972A8AA9
:102E800063072505EFE0BFE15A201C40BA97238075
:102E900047015E20F8448507C2072983C1834207A2
:102EA0005EA0418363E4E7002312040076205E20E5
:102EB000639CD7008507C207C1837EA02324340109
:102EC00063E4E70023130400EFE03FDE6DB79C509E
:102ED00085C3EFE0DFDC5A206E20636EB700B305D8
:102EE000B7402EC6EFE07FDC9C50B2452685829726
:102EF00041016FD02FE1FC44998DA983C207C183A2
:102F0000B385B740F9BF828001CEEFD20FDE7841A2
:102F1000B2878E2318433222029701456FD02FDFEC
:102F20007D558280EFD26FDC138741CF78432E86A8
:102F3000AA851843138541CF02976FD04FDDEFD29A
:102F4000CFDA138741CF78432E86AA85584313855D
:102F500041CF02976FD0AFDBEFD22FD9138741CF8C
:102F60007843AA85138541CF184702976FD02FDA8F
:102F700005C611476392E602EFD22FD77C410E229D
:102F800041119C4736C632C482972246B2462AA2D5
:102F9000368541016FD0AFD78146368582801DC20C
:102FA000B28711466390C602EFD22FD47841B22384
:102FB0008E235843411136C60297B24641013685E9
:102FC0006FD0EFD4814636858280EFD20FD29387BF
:102FD00041CF4947D8CB37370000130707F7D8DB75
:102FE000373700001307E7F998DF3737000013077A
:102FF00087F0ECC3B0C3AA850D46138541CF23A04B
:10300000070223A2070223A4070223A6070223A87C
:103010000702D8DFEFD06FED01456FD04FCF3705F6
:1030200000201305C5688280371500201305C56888
:103030008280EFD28FCBB707002003A70715930735
:10304000803EC1563357F702B7E700E02386D740EA
:103050002387D740856623A0D710916623A0D71079
:10306000B7F700E023A0070023A20700014690C79E
:103070008146D4C781461306F7FF90CBD4CB3D479A
:1030800098C3EFD0EFD7EFF09FF92A84EFF0DFF984
:10309000AA852285EFE08F9B37950000130585C434
:1030A000EFD0FFFF6FD0AFC6814785461307000200
:1030B0003396F6006306A6008507E39BE7FEFD57FF
:1030C0003E858280EFD26FC2854513050002EF1066
:1030D000504F6FD0CFC3EFD24FC185452145EF1080
:1030E000504E6FD0CFC2EFD24FC085451145EF1083
:1030F000504D6FD0CFC1EFD24FBF85454145EF1046
:10310000504C6FD0CFC0EFD24FBE854513050004A1
:10311000EF10304B6FD0AFBFEFD22FBDA565379505
:1031200000000146938505C513058533EFF0FFE9DF
:103130006FD0EFBD9307400663ECA70093174500DF
:103140002565130585CE3E951841FD576313F7009D
:1031500001458280EFD26FB9411113F5F50F32C6E8
:10316000EFF05FFD11C54E2532460845EF10702582
:1031700041016FD0CFB9EFD24FB713F5F50FEFF094
:103180007FFBAA87014589C7CE278847EF10D02249
:103190006FD0EFB7EFD26FB5011113F5F50F328491
:1031A000EFF05FF905C55C412AC6829732455C4560
:1031B000FC82C1473ECE8D473ECC09C41547631AF9
:1031C000E40002CE08454C08EF10101305616FD0E3
:1031D0000FB405476315E40091473ECEE5B763158C
:1031E000F40093078002D5BF89476315F400930765
:1031F0008004E5B791476314F400D147F9BF9947BC
:103200006314F400F147D1BF9D47E31DF4FAE14791
:10321000E9B7EFD2EFAB13F5F50FAE84B289368A7A
:103220003A89EFF03FF1994731CD4845EFF0DFE7BC
:103230003D472A8499476367A704EFE05FA6B1463C
:10324000B306D402B7070020138707082A8693879E
:103250000708369783160700639F96004C43639CCC
:1032600045012E2363993501184763162701EFE0C6
:10327000DFA3814701A87D576389E6003285EFE02F
:10328000DFA29D473E856FD0EFA731453305A402ED
:103290003E9506A123224501231135012324250152
:1032A0003285F1B7EFD26FA413F5F50FEFF09FE879
:1032B00019471DC94845EFF03FDFBD472A8419472C
:1032C00063E4A702EFE0BF9DB1473304F402B70700
:1032D0000020938707087D57A2978396070063987D
:1032E000E600EFE09F9C01473A856FD04FA241670F
:1032F0007D1798C323A2070023A40700DDB7EFD2F0
:103300002F9D011113F5F50F328AEFF0BFE29947B7
:1033100021C185442A8463159A104845EFF0DFD80F
:103320003D47AA8499476365A702EFE05F97B14ADA
:10333000B38754033709002013090908AA893E9965
:1033400003170900FD576319F700EFE01F9699472F
:103350003E8505616FD00F9B5C4082978545054592
:10336000EF1030265C440D473AC47C823EC8835738
:10337000290002CA52CE638C4709C1C70947638D31
:10338000E70808444C00EF1020771844B7170140B5
:10339000938607C005456302D7020945630FF7000E
:1033A000938707400D45630AF700B72701409387CD
:1033B000078001456313F700114593F5F40FEF10F3
:1033C000F0000808EF10206AA567938787C68E046F
:1033D000BE94D04037E700E093060005B307C7006E
:1033E0002380D740935756009387070485468A0762
:1033F000B396C600BA9794C34E85EFE01F8B814702
:1034000081BF930780023EC6A1473ECC9DBF930774
:1034100080043EC656CCB5B791473EC6C147F5B706
:103420009947E3170AF24845EFF01FC83D4799470F
:10343000E360A7F2931735002565130585C63E9511
:1034400058419357570093870706B394E4008A07BF
:1034500037E700E0BA9784C35DB7EFD20F89EFF08A
:10346000BFC4B1473305F502B707002093870708AB
:103470003E955C4199C3084582976FD04F895D7135
:1034800082E686E48AE28EE012FE16FC1AFA1EF844
:103490002AF62EF432F236F03AEE3EEC42EA46E8F4
:1034A00072E676E47AE27EE073110134EFD0AFD6B3
:1034B0000545EF10E06119C50545EFF01FFA054518
:1034C000EF10E062EFD0EFD7731101343660A660E1
:1034D000166186617272E2725273C2733275A2759E
:1034E000127682767267E2675268C268326EA26EA6
:1034F000126F826F6161730020305D7182E686E435
:103500008AE28EE012FE16FC1AFA1EF82AF62EF453
:1035100032F236F03AEE3EEC42EA46E872E676E403
:103520007AE27EE073110134EFD0EFCE0945EF105F
:10353000205A19C50945EFF05FF20945EF10205BED
:10354000EFD02FD0731101343660A660166186610A
:103550007272E2725273C2733275A27512768276FB
:103560007267E2675268C268326EA26E126F826F33
:103570006161730020305D7182E686E48AE28EE04C
:1035800012FE16FC1AFA1EF82AF62EF432F236F063
:103590003AEE3EEC42EA46E872E676E47AE27EE013
:1035A00073110134EFD02FC71145EF10605219C5C8
:1035B0001145EFF09FEA1145EF106053EFD06FC84F
:1035C000731101343660A660166186617272E27210
:1035D0005273C2733275A275127682767267E26791
:1035E0005268C268326EA26E126F826F61617300A0
:1035F00020305D7182E686E48AE28EE012FE16FCDF
:103600001AFA1EF82AF62EF432F236F03AEE3EECB2
:1036100042EA46E872E676E47AE27EE0731101342B
:10362000EFD06FBF2145EF10A04A19C52145EFF03B
:10363000DFE22145EF10A04BEFD0AFC07311013492
:103640003660A660166186617272E2725273C2734E
:103650003275A275127682767267E2675268C26826
:10366000326EA26E126F826F6161730020305D71E5
:1036700082E686E48AE28EE012FE16FC1AFA1EF852
:103680002AF62EF432F236F03AEE3EEC42EA46E802
:1036900072E676E47AE27EE073110134EFD0AFB7E0
:1036A0004145EF10E04219C54145EFF01FDB4145B0
:1036B000EF10E043EFD0EFB8731101343660A6602D
:1036C000166186617272E2725273C2733275A275AC
:1036D000127682767267E2675268C268326EA26EB4
:1036E000126F826F6161730020305D7182E686E443
:1036F0008AE28EE012FE16FC1AFA1EF82AF62EF462
:1037000032F236F03AEE3EEC42EA46E872E676E411
:103710007AE27EE073110134EFD0EFAF13050002BF
:10372000EF10003B25C513050002EFF01FD3130572
:103730000004EFF09FD213050008EFF01FD213052D
:103740000010EFF09FD113050020EFF01FD11305FB
:10375000003EEF10C039EFD0CFAE731101343660A8
:10376000A660166186617272E2725273C27332751C
:10377000A275127682767267E2675268C268326E0C
:10378000A26E126F826F6161730020301305000416
:10379000EF10003449F913050008EF10603341F5CC
:1037A00013050010EF10C0323DFD13050020EF108F
:1037B000203235F94DB75D7182E686E48AE28EE00B
:1037C00012FE16FC1AFA1EF82AF62EF432F236F021
:1037D0003AEE3EEC42EA46E872E676E47AE27EE0D1
:1037E00073110134EFD02FA313050040EF10402ECA
:1037F00035C513050040EFF05FC60565130505806C
:10380000EFF0BFC50565EFF05FC50965EFF0FFC4D8
:103810001165EFF09FC42165EFF03FC441651305CA
:1038200005C0EF10C02CEFD0CFA17311013436606A
:10383000A660166186617272E2725273C27332754B
:10384000A275127682767267E2675268C268326E3B
:10385000A26E126F826F61617300203005651305DF
:103860000580EF10E02651F50565EF10602651F157
:103870000965EF10E02535FD1165EF10602535F97C
:103880002165EF10E02435F579BF01458280EFC254
:10389000DFC59C412041A14641111CC0B1473EA457
:1038A000DC412316040013F7F7006301D702A54695
:1038B000631ED70005675AA013D747000D8B01C7B9
:1038C00085466308D7002313040031A023120400A7
:1038D000E5B709677AA099838D8B05476389E7006F
:1038E00081C709476389E7062314040021A09307D1
:1038F00000601EA41848B7470140938707806318EB
:10390000F704116585451105EF10A04B93070020C2
:10391000B71401407C820D49E1474C0013850480B7
:103920003EC64AC4EF10401D930700407C824C0005
:103930009147138504803EC64AC4EF10E01B084837
:10394000A285EF10C05A08488545EF100066014572
:1039500041016FC0DFBB9307004061BFEFC25FB79B
:10396000B71400201384446E930750035CC83719C2
:103970000020B74701401306C96893870780744643
:103980001CC8A5679387C7337CC2B70700C0F58FF3
:10399000C166A106716713070720D58F1165411114
:1039A00038C67CC68545B7070C00110518C01CC475
:1039B0002322040023160400EF10A040B719014091
:1039C000930700207C820D4AE1474C001385098053
:1039D00052C43EC6EF104012930700407C824C0058
:1039E0009147138509803EC652C4EF10E010084885
:1039F0009385446EEF10A04F08488545EF10E05ABC
:103A0000B79500009386446E13063010938585C4E5
:103A10001305C968EFF00FBF014541016FC09FAEAC
:103A2000EFC2BFAC2041930500020848EF10A05C34
:103A300019C51C48CA231375F50F6FC05FAD7D55BE
:103A4000EDBFEFC29FAA24412E848848930500044D
:103A5000EF10605A7DD99C4842044180C2A30545BD
:103A60006FC0FFAAEFC27FA8C1473841638BF50240
:103A7000C5476395F502544B054693D75600938787
:103A800007063316D6008A07B7E600E0B69790C35C
:103A90000146084B93055052EF10805201456FC00C
:103AA0001FA7544B054693D7560093870704331638
:103AB000D6008A07B7E600E0B69790C30546D1BFA7
:103AC0001D71A2CEA6CC82E686E48AE28EE012FECA
:103AD00016FC1AFA1EF82AF62EF432F236F03AEEF6
:103AE0003EEC42EA46E872E676E47AE27EE0731162
:103AF0000134B7140020EFC01FF29387C468A043BD
:103B0000930550520848EF10A04F19C985451385F9
:103B1000C468EFF0CFB4084893055052EF1000523C
:103B2000EFC03FF2731101347644E6443660A6607C
:103B3000166186617272E2725273C2733275A27537
:103B4000127682767267E2675268C268326EA26E3F
:103B5000126F826F2561730020305D7182E686E40A
:103B60008AE28EE012FE16FC1AFA1EF82AF62EF4ED
:103B700032F236F03AEE3EEC42EA46E872E676E49D
:103B80007AE27EE073110134EFC0FFE83795000060
:103B90001305C535EFD0AFD3EFC0BFEA73110134C1
:103BA0003660A660166186617272E2725273C273E9
:103BB0003275A275127682767267E2675268C268C1
:103BC000326EA26E126F826F6161730020305D7180
:103BD00082E686E48AE28EE012FE16FC1AFA1EF8ED
:103BE0002AF62EF432F236F03AEE3EEC42EA46E89D
:103BF00072E676E47AE27EE073110134EFC0BFE151
:103C00003795000013050535EFD06FCCEFC07FE38B
:103C1000731101343660A660166186617272E272B9
:103C20005273C2733275A275127682767267E2673A
:103C30005268C268326EA26E126F826F6161730049
:103C40002030EFC21F883724002079719307C4CF3A
:103C500022F626F456EC5AEA5EE862E607AB8700E5
:103C600007AC4700806387AA870187AB4701846B55
:103C7000B797000003A9074183A94741B797000000
:103C80004AF207A987404EF052EEAA84130B05189A
:103C90001304C4CF4A8ACE8A530584205374840106
:103CA000EF104042D379AB1053058420EF30D0425F
:103CB0004A86CE862A8CAE8CEF20301D635CA00035
:103CC0004A86CE866285E685EF304018EF30504F49
:103CD0005304A52053859420D3F47401EF10803E43
:103CE00053FAAA1053859420EF30103F5286D6869F
:103CF0002A8CAE8CEF207019635CA0005286D686A9
:103D00006285E685EF308014EF30904BD304A52018
:103D1000C3772A919104D39717C0C3F72991C2079B
:103D2000539717C042074183D98F23AEF4FEE39522
:103D300064F7272E44012726340104E800E0A2742A
:103D4000327412798279726AE26A526BC26B326C97
:103D500045616FC08FFA371501401D71130505804D
:103D6000054693050004A2CE82E686E48AE28EE050
:103D700012FE16FC1AFA1EF82AF62EF432F236F06B
:103D80003AEE3EEC42EA46E872E676E47AE27EE01B
:103D900037040010EF00F06213050420EF00304BF1
:103DA0002DC19387418B9843372500201305C5B754
:103DB000050798C3EFF0FFE813050420EF00F04972
:103DC0003715014001469305000413050580EF00F7
:103DD000505F76443660A660166186617272E27248
:103DE0005273C2733275A275127682767267E26779
:103DF0005268C268326EA26E126F826F25617300C4
:103E0000203013050440EF0090445DD99387818BE7
:103E10009843372500201305C59F050798C3EFF089
:103E20005FE21305044059BF371501405D7113056A
:103E3000058005469305000482E686E48AE28EE06A
:103E400012FE16FC1AFA1EF82AF62EF432F236F09A
:103E50003AEE3EEC42EA46E872E676E47AE27EE04A
:103E6000EF0030569387018B98430945050798C3A7
:103E7000EF00F03D21C50945EF00303E3715014008
:103E800001469305000413050580EF00905336604A
:103E9000A660166186617272E2725273C2733275E5
:103EA000A275127682767267E2675268C268326ED5
:103EB000A26E126F826F6161730020301145EF00B6
:103EC00010394DDD11454DBFEFC22FE2411193076F
:103ED000A0147C84280085473EC623150100EF000E
:103EE000B051ED4728005C84EF00105141016FC0D4
:103EF0000FE2EFC28FDF01118545114502C202C4F6
:103F000002C602C802CA02CC02CEEF00906B854501
:103F100037050020EF00D06C3714014093070003F1
:103F20007C824C008D47130504803EC402C6EF001E
:103F3000B03C930700047C824C00C1471305048009
:103F40003EC6EF00703BB1470C0801453EC802CAAF
:103F500002CC02CEEF0010000C084145EF00807F3C
:103F600085450145EF00100285454145EF00900170
:103F700085450145EF00D00385454145EF005003DD
:103F800013061032930530120145EF00300505612C
:103F90006FC0EFD7EFC26FD579711306C0028145AC
:103FA0004800EFC08FD785450945EF00B05F480056
:103FB000EF00D01EB7770040938707423EC2B72775
:103FC00000209387C79F3EC4C1473EC69307000C9D
:103FD0003EC8930700083ECC930700203ECE85677D
:103FE00093870780370402403ED0930700023ED2F9
:103FF0004C008D67130504433ED402CA02D6EF007D
:1040000070161305044305468945EF00501D05460B
:10401000130504439145EF00901C854513050443A7
:10402000EF00B01A45616FC08FCEEFC20FCC79712F
:10403000130600028145080802C202C402C6EFC08E
:10404000CFCD85451145EF00D05785452145EF007F
:10405000505785454145EF00D05685451305002052
:10406000EF003056854513050040EF0090550D4494
:10407000930700034C00371501407C8222C4B7141B
:10408000014002C6EF005027B1474C00138504C021
:104090007C8222C402C6EF003026BD474C00138547
:1040A00004807C8222C402C6EF0010258547372495
:1040B00001403ECA2302F102B70700043ED40C08B7
:1040C000B7070800130504403ECE02C802CC02D058
:1040D000352B130504408545952513050440854679
:1040E0000546854545238546094613050440C145D7
:1040F000512B130504408545AD2B85451305044020
:104100008D2345616FC0AFC0EFC22FBE797113061A
:10411000C00281454800EFC04FC085450545EF000E
:1041200070483704024013058400F925B727014081
:104130009387C7443EC2B71700209387C76F3EC41A
:104140009307000C3EC8930700083ECC930700106D
:104150003ECE930700403ED0930700023ED24C0073
:104160008D67130584003ED402C602CA02D6EF0052
:10417000607F45616FC0AFB9EFC22FB74111854570
:10418000096502C202C423160100EF0090434800F3
:10419000EF009051373401409307B05D4C00130598
:1041A00004403EC402C2EF0090451305044093054D
:1041B0000002EF005052130504408545EF003050D7
:1041C00085450945EF00D0414800EF00F04D370428
:1041D00000404C0013050440EF00704213050440FA
:1041E00093050002EF00304F854513050440EF00B2
:1041F000104D41016FC0AFB1EFC22FAF5375A50095
:104200002A84EF30606DB797000003A6873F83A62E
:10421000C73FEF20405EB797000003A6074083A684
:104220004740EF10F047EF30A07948E06FC02FAE65
:10423000B707002083A50715379500001D711305EA
:10424000053A86CEA2CCA6CACAC8CEC6DAC2DEC09D
:1042500062DE6ADA6ED822F626F44AF24EF052EEA8
:1042600056ECD2C466DCEFC09FE63795000013051C
:10427000053BEFC0DFE53797000087270738372475
:104280000020379700009307C4CF07274738379798
:104290000000DCE3DCEB8727873898E7B794000061
:1042A0009CEFEFF07FC2EFF0DFC4EFF0BFCEEFF096
:1042B000DFD7EFF07FE5EFF03FECB797000003A802
:1042C000473983A7073937990000B79900003EC4E2
:1042D000B797000003AB873983ABC739B7970000A6
:1042E00007AA8737B797000007A4C436872909377C
:1042F00007A94937D30400F087AAC738014D014CFC
:10430000814D42C6EFC0EFABB30685414D472A8AC7
:104310006372D704B72700209387C7CF84EFD3F405
:10432000240153859420EF30205B2246B2462A8C2C
:10433000AE8CEF20E0406354050007A94937628541
:104340005A86DE86E685EF204034528C6354A00006
:1043500053094A213307AA419306300663F9E6025E
:10436000530584201305C4CFEFF01FE953743401C3
:1043700053878AA009C7379700008729C73787A7BF
:10438000C436528D5307F4A019C387290937330760
:10439000BA419306703E63F3E6029305803EB3553F
:1043A000BA0203A7018B83A6818B03A6418B3795A5
:1043B00000001305C53CD28DEFC07FD11545EFD06D
:1043C0004FE389B7B71702409843B706FFF841118A
:1043D0001367170098C3D84337060200758FD8C3F8
:1043E0009843B706F7FEFD16758F98C39843B70636
:1043F000FCFFFD16758F98C3D843B70681FFFD16E5
:10440000758FD8C39843B70600ECFD16758F98C317
:104410003707FF0098C723A6070202C402C69843C5
:10442000C166558F98C3B716024005679C42F18F4D
:104430003EC6A24785073EC4B24781E7A247E3973D
:10444000E7FEB71702409C431397E7006356070641
:1044500085473EC632478547631EF704B7170240BB
:10446000D843B706C1FFFD16D8C3D843D8C3D84335
:1044700013670740D8C3D843758FD8C3D843C166E4
:10448000558FD8C39843B7060001558F98C39843FA
:1044900093166700E3DD06FED843B7160240719B12
:1044A000D8C3D84313672700D8C32147DC42B18B58
:1044B000E39EE7FE4101828002C669BF01A001A020
:1044C00001A001A001A001A001A001A001A001A0E4
:1044D00001A001A001A001A001A001A001A001A0D4
:1044E00001A001A001A001A001A001A001A001A0C4
:1044F00001A001A001A001A001A001A001A001A0B4
:1045000001A001A001A001A001A001A001A001A0A3
:1045100001A001A001A001A001A001A001A001A093
:1045200001A001A001A001A001A001A001A001A083
:1045300001A001A001A001A001A001A001A001A073
:1045400001A001A001A001A001A001A001A001A063
:1045500001A001A001A001A001A001A001A001A053
:1045600001A001A001A001A001A001A001A001A043
:1045700001A001A001A001A001A07390123497C175
:10458000FF1F9381213D17C100201301A1A71755DB
:1045900000001305E55C97C5FF1F9385A5A613864C
:1045A000818063FAC5008322050023A05500110510
:1045B0009105E3EAC5FE1385818097D5FF1F93859A
:1045C00025766377B500232005001105E36DB5FE60
:1045D000FD42739002BCFD4273904280B78200009E
:1045E0009382028073A0023097C2FFFF938202A5DC
:1045F00093E2320073905230EFF0DFDC97C2FFFF9E
:104600009382C20973901234730020305C413707E3
:10461000F1E01307F7EF944D7D8F9C41D58FD44D7A
:10462000D58FD441A206D58FD98F5CC11C4537F7F1
:10463000F1FF1307D77FD4457D8F9C49D58F9445D3
:104640008606D58FD98F1CC55C55370710FF7D179F
:104650007D8FDC29FD1793F7F70FD207D98F5CD533
:1046600082801C4589C593E717001CC58280F99B91
:10467000EDBF1C4589C593E707101CC5828093F7E1
:10468000F7EFE5BFA54763F7B7048D47138765FFCD
:104690003307F7020328C5009D47B397E70093C788
:1046A000F7FFB3F70701B396E600DD8E54C59947CF
:1046B00063E3C70495477D163306F6025859FD4754
:1046C000B397C70093C7F7FFF98F3396C5005D8E88
:1046D00050D982800D473387E502032805019D47A5
:1046E000B397E70093C7F7FFB3F70701B396E60068
:1046F000DD8E14C96DBFB14763E2C70295476516E9
:104700003306F6021859FD47B397C70093C7F7FF62
:10471000F98F3396C5005D8E10D9828095474D166E
:104720003306F6025855FD47B397C70093C7F7FF06
:10473000F98FB395C500DD8D4CD582801C4591C5A0
:1047400037071000D98F1CC582803707F0FF7D170F
:10475000F98FD5BFB7760040056783A70640791764
:104760003317A7001347F7FFD0417D8F9C41D18FAE
:104770009045D18FD045D18FB397A700D98F23A073
:10478000F640828085473395A70089C93777004076
:10479000832707405D8D2320A7408280B7770040A4
:1047A00003A707401345F5FF798D23A0A74082801A
:1047B00085673395A70089C937770040832707406D
:1047C0005D8D2320A7408280B777004003A7074074
:1047D0001345F5FF798D23A0A7408280A147631B75
:1047E000F500A205B777004093870742D18D3E952B
:1047F0000CC18280C205FDB71C4141677917F98F52
:104800001CC1232005002322050023240500B7072F
:10481000024023260500138787006317E500D8436D
:104820001367F700D8C382801387C7016316E500BA
:10483000D8431367070FFDB7138707036318E50015
:10484000D8438566938606F0558FE9BF13874704E2
:104850006315E500D843BD66C5BF1387870563169A
:10486000E500D843B7060F00C5B71387C706631620
:10487000E500D843B706F000C1BF138707086316E9
:10488000E500D843B706000FC1B713878740631907
:10489000E50003A747401367F70023A2E7408280A3
:1048A0001387C7416317E50003A747401367070F46
:1048B000EDB793870743631BF500B707024003A7D3
:1048C00047408566938606F0558FC1BFB707024003
:1048D000138747446316E50003A74740BD66EDB75D
:1048E000138787456317E50003A74740B7060F0006
:1048F000E1BF1387C7466317E50003A74740B70624
:10490000F000D9B7138707486317E50003A74740AE
:10491000B706000F55BF138707496319E50003A7C2
:10492000474D1367F70023AAE74C82801387074A95
:104930006317E50003A7474D1367070FEDB713870C
:10494000074B6319E50003A7474D8566938606F07C
:10495000558FD1BF1387074CE319E5FC03A7474DDB
:10496000BD66FDB71C4161773D0794517D8F9C4525
:10497000D58F9449D58FD449D58F944DD58FD44DAB
:10498000D58FD451D58F9455D58FD98F1CC1DC4587
:104990005CC19C411CC5DC415CC5828023200500B4
:1049A00023220500232405002326050023280500D3
:1049B000232A0500232C0500232E050023200502B1
:1049C000232205022324050282801C4189C593E726
:1049D00017001CC1828041677917F98FDDBF1C4128
:1049E00001C6DD8D0CC1828093C5F5FFFD8DDDBF55
:1049F0009317350063DA0700B707024083A7074023
:104A00007D8D3335A00082809317250063D7070082
:104A1000B707024083A7074DE5B7B70702409C439D
:104A2000C5B79317350063D70700B707024023A225
:104A3000A74082809317250063D70700B70702407D
:104A400023AAA74C8280B7070240C8C38280EFB276
:104A5000DFA9EFF0FFF96FB09FABEFB21FA9EFF046
:104A60005FFC6FB0DFAA5841032805004C453706AC
:104A70000140930706403E979346F8FFB1C5832552
:104A80000640F58D2320B640D043F18ED4C31443A5
:104A9000B3E6060114C3184190479346F7FF758E9D
:104AA00090C7D047F18ED4C7144541466399C600DC
:104AB0009447D98E94C7D447558FD8C78280B6976C
:104AC0009443558F98C382801C43F58F1CC382800A
:104AD000B70701401387074083A70740584B698FEA
:104AE00009C77D8D3335A000828001458280B707DC
:104AF000014023AAA74082809C4513F7070113F8C1
:104B0000F70001C7D8413368E8008E2113F7F50F8D
:104B100039C318418146854E3D4F930F8002930261
:104B20008004214E3396DE00B3F8C50063111603EE
:104B30009398260033131F011343F3FF3377E300E9
:104B4000B318180133E7E800639FF70550C98506DD
:104B5000E39AC6FD18C11307F00F6375B7045441FB
:104B60002146854E3D4F930F800293028004414EB3
:104B7000B398CE0033F715016392E80213172600AD
:104B800001173313EF001343F3FFB376D30033174A
:104B9000E800D98E639DF701232A15010506E31964
:104BA000C6FD54C18280E39457FA10C94DB7E3970C
:104BB00057FE23281501DDB708456D8D3335A0005C
:104BC000828019C20CC982804CC9828013F7C50F3C
:104BD00093F73500B7050140BA9594458A073D47DC
:104BE0003317F7001347F7FF758F98C598453315AE
:104BF000F500598D88C582809387C18B9443182115
:104C000081E63C21920721A894430546639FC60292
:104C10003C21103192076314D60093E707F8B7E6FA
:104C200000E093F7F70FBA962380F6408546935736
:104C300057003397E6005441A5C2938707048A07BB
:104C4000B7E600E0B69798C382808C4389466391AB
:104C5000D50214313C216365D6008A06B6975DB74C
:104C60009386E6038A06B69793F7F70F920775B710
:104C700090438D46631CD60014313C216364D600FA
:104C80008606E9BF9386C6078606F1BF944391471F
:104C9000E39EF6F81C31BDB7938707064DB737176B
:104CA00002405C439146B18B6385D700A146638285
:104CB000D706B7177A00938707201CC13716024022
:104CC0005C4237070020130707149183BD8BBA9706
:104CD00094231C41B3D7D7005CC15442A1829D8A62
:104CE000BA969422B3D6D70014C55442AD829D8A99
:104CF00036971823B3D7E7005CC5584239839376BB
:104D000037001387418036971823B3D7E7021CC9B1
:104D100082805C4354434167C983F98E37F7FF1F94
:104D20000327C770BD8B8907131617016348060058
:104D3000454601476392C702C94739A809476389B5
:104D4000E7023D476388E70241476388E70245463B
:104D500001476393C700C14785E6B746024083A673
:104D60000680C18A8DC6B7167A009386062025A0D4
:104D70000147D9B70547B547C5B70147BD47E9BFA3
:104D8000B7160240D4421396E600E35E06FCB7165F
:104D90003D0093860690B387D7021CC105D31C4102
:104DA000858321BF99C5371702405C4B5D8D48CB89
:104DB0008280B7170240D84B1345F5FF798DC8CBD9
:104DC000828099C5371702401C4F5D8D08CF8280C5
:104DD000B7170240984F1345F5FF798D88CF828031
:104DE00099C5371702405C4F5D8D48CF8280B71759
:104DF0000240D84F1345F5FF798DC8CF82801E2120
:104E000037370140930607C0C207C1836300D5044A
:104E1000B7060040630CD502938606406308D502AE
:104E2000B7160040138606806302C502938606C04B
:104E3000630ED50013070740630AE50037570140AA
:104E4000930607C06304D5006316E500BA2193F703
:104E5000F7F8D98F37170040630CE50013070740B8
:104E60006308E50093F7F7CFFA21C207C183D98F12
:104E70001EA1DE215EB59E211EB5B7370140138706
:104E800007C0630EE50093870740630AF500B75734
:104E90000140138707C06304E5006314F5009C25F7
:104EA0001EB985475EA98280FD575EA123100500CB
:104EB00023130500231105002304050082801E2111
:104EC00089C593E717001EA18280C207C183F99BA1
:104ED000C207C183CDBF5E21C207C18393F7F7F834
:104EE000C207C1835EA15E21DD8D4EA18280EFB23B
:104EF000CFDF1629F577FD17F58FF621DA257971C1
:104F0000D58F1EA95625FD779387379FF58FD6211C
:104F10002A842EC6D58F9625D58FB625D58F5EA52A
:104F20005E29C207C18393F7F7CFD98F5EA96808BE
:104F3000EFF0FFD6B747014093870780B245631A69
:104F4000F404A25756246547B387E702C206C18618
:104F5000984163D20604060752244206B3D7E702FB
:104F6000130740064186B3D6E702B3F7E70292067D
:104F7000635506028E0793872703B3D7E70213F71B
:104F80007700B367D700C207C1831EA445616FB025
:104F90000FD8925745BF0A07C1B7920793872703D7
:104FA000B3D7E702BD8BD58FF9BF91C55E250967E1
:104FB000D98F5EA582805A25F977FD17F98FD5BF65
:104FC00013F7F50F85471583B395B7006319F700FD
:104FD0009307C500984301CED98D8CC38280894642
:104FE00093074501E318D7FE93070501E5B793C57D
:104FF000F5FFF98DDDB70A216D8D3335A000828074
:1050000013F7F50F85461583B397B6006311D702E2
:105010005A25F98F1A2101454207418381CB054565
:10502000A181B315B5006D8F3335E00082808946CC
:105030006314D7001A29F1BF5A29E1BFA18185471E
:10504000B397B70093C7F7FFC207C1831EA1828041
:105050005D7182E686E48AE28EE012FE16FC1AFAA0
:105060001EF82AF62EF432F236F03AEE3EEC42EA20
:1050700046E872E676E47AE27EE073110134EFB03E
:105080009F99B7F700E023A20700EFB0EFD3EFB08E
:105090005F9B731101343660A6601661866172727F
:1050A000E2725273C2733275A2751276827672679B
:1050B000E2675268C268326EA26E126F826F6161DF
:1050C00073002030D30705E00111B716493F13974D
:1050D000170006CE938686FD058363DBE602B706DE
:1050E000807F6347D7005375A508F2400561828031
:1050F0002800A9200D8985476304F5028947B26518
:1051000022656307F5020DC1E5245315A520F1BF03
:10511000D30500F00145EF00D030F24005618280F8
:10512000B2652265F124D1B70545EF00902F75BF18
:105130000545EF00102F5315A52045BFD30705E007
:10514000011122CC3717493F1394170026CA06CE07
:105150004AC8130787FD0580AA846355870E37D791
:105160001640130737BE3E89634487041747000083
:105170008727C72A3717C93F4198130707FD63538D
:10518000F022D377F508630FE40C9747000007A7D8
:105190002729D3F6E7080545D3F7D70894E0D3F7D6
:1051A000E708DCE0F2406244D24442490561828073
:1051B000B7174943938707F863DF870CB707807FEA
:1051C000635CF408135674411306A6F7931776012F
:1051D0001D8CD30704F017470000872627265306A7
:1051E00000F0D39707C08D4653F707D0D3F7E708F1
:1051F0003AE2D3F7D710D39707C053F707D0D3F7C6
:10520000E7083AE4D3F7D710D3A7C7A03EE691C783
:10521000D326C7A093B6160085069747000093874C
:10522000272A0947A68548002126E35D09F69860EC
:10523000DC603305A0405317E720D397F72098E0B0
:10524000DCE08DB7F240624488E023220500D244BE
:105250004249014505618280D377A5080145DCE01C
:105260009CE089B79747000007A7C71BD3F7E7085B
:105270009747000007A7471BF24062444249D3F614
:10528000E7080545D3F7D70894E0D3F7E708DCE053
:10529000D24405618280EF00F0229747000087A783
:1052A00027199747000087A66718C376D5789747D0
:1052B000000007A7E7169747000087A72716FD47B6
:1052C000539506C0D37605D04BF5F650D3F7E610CC
:1052D00063C7A7049307F5FF139727005377F508D3
:1052E000974700009387C715BA979443137704F044
:1052F000D30707E06309D7029CC0538707F05375B3
:10530000E5085375F508C8E0E35E09E8D317E72020
:105310005315A5203305A0409CE0C8E061B5537744
:10532000F508D30707E013D777015D841377F70FEC
:105330003307E440A146E3D1E6FC9747000007A607
:10534000670E4BF7C6509747000087A7E70DE54665
:105350005375E5084BF5C650C7F7F6505376F70876
:10536000D30706E013D777011377F70F198C63C6BD
:10537000860090E05305E72049B79747000007A64D
:10538000670B4BF5C6709747000087A7E70A53776E
:10539000A7084BF7C670C7F7F6705377F508D30721
:1053A00007E099BFD377F5006300E4029747000058
:1053B00007A70707D3F6E7007D55D3F7D70894E092
:1053C000D3F7E700DCE0F9BB9747000007A78705A4
:1053D000D3F7E7009747000007A707057D55D3F6E9
:1053E000E700D3F7D70894E0D3F7E700DCE05DBB34
:1053F000530705E0B706003293171700858363DF74
:10540000D706D31705C063800712D376A510974738
:10541000000087A7673D9747000007A5A73C97476F
:10542000000007A0A73C9747000007A6673C43F58C
:10543000A6789747000007A7E73B9747000087A794
:10544000A73B43F5A60043F5A66043F5A670C3F756
:10545000A678D3F7D710530707F09747000007A5A2
:105460002738D375B7109747000007A767FCC7F721
:10547000F658C7F7E6785375F5088280D376A510FD
:105480009746000007A646369746000007A78635D0
:105490009746000087A786359746000007A0463547
:1054A00043F7E6609746000007A5C634974600001C
:1054B00007A68634B7A6993E93869699C377D77880
:1054C000C3F7D700C3F7D750C3F7D760D3F7D710C8
:1054D000E3D3F6F8B706483F63CEF602B70600FFFF
:1054E000B697538607F09746000007A5662F5375B9
:1054F000C508530707F0D375B7109747000007A7F3
:1055000027F347F7E660C7F7F658D377F7085375E0
:10551000F50882809747000007A5072C97470000F1
:1055200007A6C72BF9B79747000007A5672B82800E
:105530002171131827003ACA174700001307C72F15
:105540004297232C811A232A91192328A1193284E6
:1055500032CE232E111A232A911A2328211B232607
:10556000311B2324411B2322511B2320611B232E8B
:105570007119232C81192326B119272E8116272C66
:105580009116272A21172728311727264117272464
:1055900051172722611771582EC83EC22A86832CC4
:1055A0000700138DF6FF634904639307D4FF93D478
:1055B000F7419D88BE9493D73440138B17003EC4A7
:1055C00093173B003ECCA2476245F2453387AC01BE
:1055D000B387A74113081700338AA5403E9888185F
:1055E00063430702924513972700D30700F02E97D5
:1055F00063C507001843D37707D011058507272E09
:10560000F5FEE39107FF939D2C0063C40C049318EF
:105610002D009C1813854800939D2C00BE985C0AB1
:10562000130801113383B70132954687B287D30738
:1056300000F0634A0D009463186391077117C3F774
:10564000E678E39AA7FE2720F80011089108E31EE8
:1056500068FC9387FCFF93898DFF13992700930AB9
:1056600001027C08BE9DB3873A013EC68A06974771
:10567000000087A4E71B9747000007A4A71B9747D4
:10568000000007A9E7159747000007AB271A9747BF
:10569000000087AAA7DA9747000087A967D9330CCB
:1056A000D6009C12B7060040E6891384F6FF3E99A7
:1056B000939429009C12A69707A507FB635F30030C
:1056C00033858900930E01110A057695568311A042
:1056D0007285D377651114611103130EC5FFD3973B
:1056E00007C0D3F707D04BF7575153F5D700D3175F
:1056F00007C0232EF3FEE39DAEFC528532C0592530
:10570000530AA52053759510E9234B7585A00246D1
:10571000531B05C0537A0BD0537A4509635F400D84
:105720009387F9FF8A079812BA9703A307EC2145DC
:1057300033054541335EA3403315AE003303A34028
:105740001D453305454123A067ECB35BA340729B25
:105750006342700DD30700F0D327FAA063890712C4
:10576000138EF9FF634E9E01B38789008A07D6978F
:1057700001478843F117498FE39DB7FF6316073050
:10578000832709EC639D072EB2470547F117C843ED
:1057900005076DDD938719003E8EB388E900224727
:1057A0003305FD0022953303F70012470A038A07E9
:1057B0003A93180A0A05B30EF7009C183E95832702
:1057C0000300530700F0D3F707D05CE1634D0D00F1
:1057D0002A87B28719A01C6371179463910743F756
:1057E000F670E39A87FF27A0EE00050E1103910ED5
:1057F0001105E3D6C8FDC68965BD63160A269387E1
:10580000F9FF8A079812BA9703A307EC935B8340CA
:10581000E35270F5050B6355303D025E63130E20B5
:105820008547638EF900130F4102032E0F00138585
:105830001700110F63190E1EAA87E398A9FE635380
:1058400040038547630EFA368947631DFA00938744
:10585000F9FF8A079812BA9703A507EC1375F503A9
:1058600023A0A7EC8947E397FBEE537A4909E303AA
:105870000EEE53052921528532C02923537AAA08F6
:10588000D30700F00246D327FAA0E39B07ECE247D8
:10589000724753054A213385E740ED2197470000C1
:1058A00087A6C7B9D387A6A0638E073297470000A3
:1058B00007A7C7F75377E510138E19009C1213162C
:1058C0002E00338797003E96D31707C0210AD3F7DF
:1058D00007D0CBF6D750D39707C0D39606C0232066
:1058E000D7EC2320F6EC53052921528572C05929A3
:1058F000024E63450E1C93182E00130F0111B305C1
:105900001F0133871A01AE869747000007A707F2E9
:1059100011A032871C43F1161306C7FFD3F707D037
:10592000D3F7A7105375E510DCE2E394EAFE130801
:10593000010C428501469747000007A6E7EE63C2C7
:105940000C04974600009386A6EB2E875307C620CB
:10595000D30700F0814729A0634BF60098629106B7
:10596000146385071107C3F7E678E3D7FCFE1CE153
:10597000050611059387C5FF630FBF00BE85E3D2FF
:105980000CFCD30700F005061105272EF5FE9387C2
:10599000C5FFE315BFFE5247894763C0E718C298A9
:1059A000D30700F0634AE01219C305A0BE8807A719
:1059B00008009387C8FFD3F7E700E31918FF638453
:1059C0000B00D397F720C2479CE38320C11B03241D
:1059D000811B13757B008324411B0329011B832931
:1059E000C11A032A811A832A411A032B011A832B15
:1059F000C119032C8119832C4119032D0119832D01
:105A0000C1180724C117872481170729411787293F
:105A10000117072AC116872A8116072B41163961FB
:105A20008280054581478A079812130F0010BA97A4
:105A3000330ECF4123A0C7ED6355350393172500DF
:105A40003305F700032505ECD697338F9A00130E24
:105A5000F00F11A088433305AE4088C39107E39B44
:105A6000E7FF054EE9BBD38749A1814BE38407CE0D
:105A7000050B894BE34330DB537A4909E1B993873E
:105A800019003E8EBE8821BB93172E009812BA973C
:105A900083A707EC611AE39807E493972900E117BD
:105AA000D697F117D8437D1E611A65DF530529216A
:105AB000528572C0C12C024EE35F0EE25247894705
:105AC00063CDE704D30700F06340E002E31F07EE75
:105AD000E38B0BEEFDB5BE8807A708009387C8FFD0
